:020000040800F2
:1000000080260020FD500008AFB60008D15000083F
:10001000D1500008D1500008D15000080000000065
:100020000000000000000000000000006949000816
:10003000D15000080000000015490008616D00085B
:10004000194A0008194A0008194A0008194A000804
:10005000194A0008194A0008194A0008194A0008F4
:10006000194A0008194A0008194A0008194A0008E4
:10007000194A0008194A0008194A0008194A0008D4
:10008000194A0008194A0008194A0008194A0008C4
:10009000194A0008194A0008194A0008194A0008B4
:1000A000194A0008194A0008194A0008194A0008A4
:1000B000194A0008194A0008194A0008194A000894
:1000C000194A0008194A0008194A0008194A000884
:1000D000194A0008194A0008194A0008194A000874
:1000E000194A0008194A0008194A0008194A000864
:1000F000194A0008194A0008194A0008194A000854
:10010000194A0008194A0008194A0008194A000843
:10011000194A0008194A0008194A0008194A000833
:10012000194A0008194A0008194A0008194A000823
:10013000194A0008194A0008194A0008194A000813
:10014000194A0008194A0008194A0008194A000803
:10015000194A0008194A0008194A0008194A0008F3
:10016000194A0008194A0008194A0008194A0008E3
:10017000194A0008194A0008194A0008194A0008D3
:10018000194A0008194A0008194A0008194A0008C3
:04019000194A000800
:0C019400FFFFFFFFFFFFFFFFFFFFFFFF6B
:1001A00001F0FF01102A2BDB10F0070F08D010F828
:1001B000013B013A8B422DD010F0070F42B3F6D12C
:1001C000F0B441EA012141EA014122F007047FF045
:1001D00000070023F0E80256083C85EA010586EA9C
:1001E000010685FA47F5A3FA87F586FA47F6A5FAD8
:1001F00087F68EB9EED1F0BC01F0FF0102F00702E4
:1002000032B110F8013B013A83EA010313B1F8D18E
:100210000020704701387047002D06BF354603386F
:10022000073815F0010F07D1013015F4807F02BFA8
:10023000013015F4C03F0130F0BC0138704700BFF9
:1002400081F0004102E000BF83F0004330B54FEA87
:1002500041044FEA430594EA050F08BF90EA020FF4
:100260001FBF54EA000C55EA020C7FEA645C7FEA87
:10027000655C00F0E2804FEA5454D4EB5555B8BFAA
:100280006D420CDD2C4480EA020281EA030382EA1B
:10029000000083EA010180EA020281EA0303362DAD
:1002A00088BF30BD11F0004F4FEA01314FF4801C80
:1002B0004CEA113102D0404261EB410113F0004F92
:1002C0004FEA03334CEA133302D0524263EB430349
:1002D00094EA050F00F0A780A4F10104D5F1200EE7
:1002E0000DDB02FA0EFC22FA05F2801841F1000142
:1002F00003FA0EF2801843FA05F359410EE0A5F116
:1003000020050EF1200E012A03FA0EFC28BF4CF046
:10031000020C43FA05F3C01851EBE37101F00045FC
:1003200007D54FF0000EDCF1000C7EEB00006EEB09
:100330000101B1F5801F1BD3B1F5001F0CD3490893
:100340005FEA30004FEA3C0C04F101044FEA4452EA
:1003500012F5800F80F09A80BCF1004F08BF5FEA71
:10036000500C50F1000041EB045141EA050130BD51
:100370005FEA4C0C404141EB0101013C28BFB1F563
:10038000801FE9D291F0000F04BF01460020B1FAAE
:1003900081F308BF2033A3F10B03B3F120020CDA81
:1003A0000C3208DD02F1140CC2F10C0201FA0CF05F
:1003B00021FA02F10CE002F11402D8BFC2F1200CC4
:1003C00001FA02F120FA0CFCDCBF41EA0C0190407A
:1003D000E41AA2BF01EB0451294330BD6FEA0404C3
:1003E0001F3C1CDA0C340EDC04F11404C4F12002AE
:1003F00020FA04F001FA02F340EA030021FA04F3C0
:1004000045EA030130BDC4F10C04C4F1200220FA16
:1004100002F001FA04F340EA0300294630BD21FA54
:1004200004F0294630BD94F0000F83F4801306BF1A
:1004300081F480110134013D4EE77FEA645C18BF0E
:100440007FEA655C29D094EA050F08BF90EA020FA5
:1004500005D054EA000C04BF1946104630BD91EA9D
:10046000030F1EBF0021002030BD5FEA545C05D1A0
:100470004000494128BF41F0004130BD14F58004DF
:100480003CBF01F5801130BD01F0004545F0FE4153
:1004900041F470014FF0000030BD7FEA645C1ABF88
:1004A000194610467FEA655C1CBF0B46024650EABF
:1004B000013406BF52EA033591EA030F41F40021EB
:1004C00030BD00BF90F0000F04BF0021704730B571
:1004D0004FF4806404F132044FF000054FF0000146
:1004E00050E700BF90F0000F04BF0021704730B507
:1004F0004FF4806404F1320410F0004548BF4042DC
:100500004FF000013EE700BF42004FEAE2014FEA30
:1005100031014FEA02701FBF12F07F4393F07F4F0B
:1005200081F06051704732F07F4208BF704793F00E
:100530007F4F04BF41F40021704730B54FF4607421
:1005400001F0004521F000411CE700BF50EA010224
:1005500008BF704730B54FF000050AE050EA0102CD
:1005600008BF704730B511F0004502D5404261EB3D
:1005700041014FF4806404F132045FEA915C3FF47E
:10058000D8AE4FF003025FEADC0C18BF03325FEA1B
:10059000DC0C18BF033202EBDC02C2F1200300FACC
:1005A00003FC20FA02F001FA03FE40EA0E0021FAF1
:1005B00002F11444BDE600BF70B54FF0FF0C4CF4DF
:1005C000E06C1CEA11541DBF1CEA135594EA0C0F91
:1005D00095EA0C0F00F0DEF82C4481EA030621EACC
:1005E0004C5123EA4C5350EA013518BF52EA033507
:1005F00041F4801143F4801338D0A0FB02CE4FF0B9
:100600000005E1FB02E506F00042E0FB03E54FF0E8
:100610000006E1FB03569CF0000F18BF4EF0010EE0
:10062000A4F1FF04B6F5007F64F5407404D25FEADC
:100630004E0E6D4146EB060642EAC62141EA55518F
:100640004FEAC52040EA5E504FEACE2EB4F1FD0CD1
:1006500088BFBCF5E06F1ED8BEF1004F08BF5FEA4F
:10066000500E50F1000041EB045170BD06F0004601
:1006700046EA010140EA020081EA0301B4EB5C04AE
:10068000C2BFD4EB0C0541EA045170BD41F48011A6
:100690004FF0000E013C00F3AB8014F1360FDEBFCB
:1006A000002001F0004170BDC4F10004203C35DAA7
:1006B0000C341BDC04F11404C4F1200500FA05F32A
:1006C00020FA04F001FA05F240EA020001F00042CB
:1006D00021F0004110EBD37021FA04F642EB060141
:1006E0005EEA430E08BF20EAD37070BDC4F10C046B
:1006F000C4F1200500FA04F320FA05F001FA04F22F
:1007000040EA020001F0004110EBD37041F100011A
:100710005EEA430E08BF20EAD37070BDC4F1200525
:1007200000FA05F24EEA020E20FA04F301FA05F28D
:1007300043EA020321FA04F001F0004121FA04F235
:1007400020EA020000EBD3705EEA430E08BF20EA05
:10075000D37070BD94F0000F0FD101F0004640003F
:1007600041EB010111F4801F08BF013CF7D041EAC1
:10077000060195F0000F18BF704703F000465200C5
:1007800043EB030313F4801F08BF013DF7D043EA96
:100790000603704794EA0C0F0CEA135518BF95EA4C
:1007A0000C0F0CD050EA410618BF52EA4306D1D1D3
:1007B00081EA030101F000414FF0000070BD50EAF2
:1007C000410606BF1046194652EA430619D094EA7C
:1007D0000C0F02D150EA013613D195EA0C0F05D166
:1007E00052EA03361CBF104619460AD181EA0301BA
:1007F00001F0004141F0FE4141F470014FF0000072
:1008000070BD41F0FE4141F4780170BD70B54FF00C
:10081000FF0C4CF4E06C1CEA11541DBF1CEA13558C
:1008200094EA0C0F95EA0C0F00F0A7F8A4EB05046E
:1008300081EA030E52EA03354FEA013100F0888065
:100840004FEA03334FF0805545EA131343EA12632E
:100850004FEA022245EA111545EA10654FEA0026E3
:100860000EF000419D4208BF964244F1FD0404F59C
:10087000407402D25B084FEA3202B61A65EB0305F8
:100880005B084FEA32024FF480104FF4002CB6EBB5
:10089000020E75EB030E22BFB61A754640EA0C0035
:1008A0005B084FEA3202B6EB020E75EB030E22BF75
:1008B000B61A754640EA5C005B084FEA3202B6EBB6
:1008C000020E75EB030E22BFB61A754640EA9C0075
:1008D0005B084FEA3202B6EB020E75EB030E22BF45
:1008E000B61A754640EADC0055EA060E18D04FEA03
:1008F000051545EA16754FEA06164FEAC30343EAA3
:1009000052734FEAC2025FEA1C1CC0D111F4801F6F
:100910000BD141EA00014FF000004FF0004CB6E768
:1009200011F4801F04BF01430020B4F1FD0C88BF07
:10093000BCF5E06F3FF6AFAEB5EB030C04BFB6EB12
:10094000020C5FEA500C50F1000041EB045170BD05
:100950000EF0004E4EEA113114EB5C04C2BFD4EB32
:100960000C0541EA045170BD41F480114FF0000EB6
:10097000013C90E645EA060E8DE60CEA135594EA32
:100980000C0F08BF95EA0C0F3FF43BAF94EA0C0F35
:100990000AD150EA01347FF434AF95EA0C0F7FF4AA
:1009A00025AF104619462CE795EA0C0F06D152EAFE
:1009B00003353FF4FDAE1046194622E750EA4106E2
:1009C00018BF52EA43067FF4C5AE50EA41047FF4F3
:1009D0000DAF52EA43057FF4EBAE12E74FEA410256
:1009E000B2F1E04324BFB3F5001CDCF1FE5C0DD98D
:1009F00001F0004C4FEAC0024CEA5070B2F1004FD7
:100A000040EB830008BF20F00100704711F0804FD9
:100A100021D113F13872BCBF01F00040704741F49E
:100A200080114FEA5252C2F11802C2F1200C10FAA2
:100A30000CF320FA02F018BF40F001004FEAC12386
:100A40004FEAD32303FA0CFC40EA0C0023FA02F32A
:100A50004FEA4303CCE77FEA625307D150EA013300
:100A60001EBF4FF0FE4040F44000704701F00040D0
:100A700040F0FE4040F40000704700BF4FF0FF3CE4
:100A800006E000BF4FF0010C02E000BF4FF0010C88
:100A90004DF804CD4FEA40024FEA41037FEA226C51
:100AA00018BF7FEA236C11D001B052EA530C18BF73
:100AB00090EA010F58BFB2EB030088BFC81738BFD8
:100AC0006FEAE17018BF40F0010070477FEA226CC6
:100AD00002D15FEA402C05D17FEA236CE4D15FEAC2
:100AE000412CE1D05DF8040B704700BF84460846F6
:100AF0006146FFE70FB5FFF7C9FF002848BF10F1B7
:100B0000000F0FBD4DF808EDFFF7F4FF0CBF0120FB
:100B100000205DF808FB00BF4DF808EDFFF7EAFF85
:100B200034BF012000205DF808FB00BF4DF808ED40
:100B3000FFF7E0FF94BF012000205DF808FB00BF35
:100B40004DF808EDFFF7D2FF94BF012000205DF8BB
:100B500008FB00BF4DF808EDFFF7C8FF34BF0120C8
:100B600000205DF808FB00BF53B94AB9002908BF4F
:100B700000281CBF4FF0FF314FF0FF3000F00CB8E1
:100B8000ADF1080C6DE904CE00F0CEF8DDF804E01C
:100B9000DDE9022304B07047704700BF4FF0FF3C0F
:100BA00006E000BF4FF0010C02E000BF4FF0010C67
:100BB0004DF804CD4FEA410C7FEA6C5C4FEA430CE0
:100BC00018BF7FEA6C5C1BD001B050EA410C0CBF2F
:100BD00052EA430C91EA030F02BF90EA020F002091
:100BE000704710F1000F91EA030F58BF994208BFF8
:100BF00090422CBFD8176FEAE37040F001007047B5
:100C00004FEA410C7FEA6C5C02D150EA013C07D10B
:100C10004FEA430C7FEA6C5CD6D152EA033CD3D056
:100C20005DF8040B704700BF8446104662468C4650
:100C30001946634600E000BF01B5FFF7B7FF002883
:100C400048BF10F1000F01BD4DF808EDFFF7F4FFAC
:100C50000CBF012000205DF808FB00BF4DF808ED37
:100C6000FFF7EAFF34BF012000205DF808FB00BF5A
:100C70004DF808EDFFF7E0FF94BF012000205DF87C
:100C800008FB00BF4DF808EDFFF7CEFF94BF012031
:100C900000205DF808FB00BF4DF808EDFFF7C4FF2A
:100CA00034BF012000205DF808FB00BF4FEA410C73
:100CB0007FEA6C5C02D150EA013C0AD14FEA430C56
:100CC0007FEA6C5C02D152EA033C02D14FF0000093
:100CD00070474FF0010070474FEA410212F50012D1
:100CE00015D211D56FF47873B3EB625212D94FEA73
:100CF000C12343F0004343EA505311F0004F23FA5D
:100D000002F018BF404270474FF00000704750EAB1
:100D1000013005D111F0004008BF6FF0004070476E
:100D20004FF00000704700BF2DE9F04786468C4623
:100D30000846089E154674461946002B40F0C280AE
:100D40008542B2FA82F245D94AB1C2F1200300FAD3
:100D500002FC2EFA03F3954043EA0C0C94404FEA50
:100D6000154EA8B2BCFBFEF8230C0EFB18CC08FBFA
:100D700000F943EA0C43994528D9EB1808F1FF37ED
:100D800004D2994502D9A8F102072B44A3EB090329
:100D9000A4B2B3FBFEFC0EFB1C330CFB00F044EAD8
:100DA0000344A04214D92C190CF1FF3304D2A04201
:100DB00002D9ACF102032C44241A43EA07401EB1C5
:100DC000D440002334607360BDE8F0874746DDE718
:100DD0006346F1E792BB431B01214FEA154EAFB2C8
:100DE000B3FBFEFC200C0EFB1C330CFB07F840EAA7
:100DF0000343984562D9EB180CF1FF3004D29845B3
:100E000002D9ACF102002B44A3EB0803A4B2B3FB5C
:100E1000FEFC0EFB1C330CFB07F744EA0344A7421D
:100E20004ED92C190CF1FF3304D2A74202D9ACF1F0
:100E300002032C44E41B43EA0040C0E7C2F1200354
:100E400020FA03F1954090402EFA03F303434FEA52
:100E5000154EAFB2B1FBFEFC0EFB1C10190C0CFBC7
:100E600007F841EA0041884504FA02F422D96918DA
:100E70000CF1FF3004D2884502D9ACF102002944BC
:100E8000A1EB08019BB2B1FBFEFC0EFB1C110CFB9D
:100E900007F743EA01439F420ED9EB180CF1FF31EB
:100EA00004D29F4202D9ACF102012B44DB1B41EA80
:100EB000004192E76046E3E76146F7E76046A3E753
:100EC0006346B7E7834206D916B9002108467BE797
:100ED000C6E900E0F9E7B3FA83F78FB9834201D39B
:100EE000724508D8BEEB020460EB030301209C4668
:100EF0001EB9002168E73846FAE7C6E9004CF8E772
:100F0000C7F1200CBB4022FA0CF41C432EFA0CF162
:100F100020FA0CF3B84001434FEA14490EFA07F5E2
:100F2000B3FBF9F81FFA84FE09FB18300B0C08FB21
:100F30000EFA43EA00439A4502FA07F240D9E31851
:100F400008F1FF3004D29A4502D9A8F102002344E7
:100F5000A3EB0A0389B2B3FBF9F809FB183308FBCA
:100F60000EFE41EA03418E452CD9611808F1FF338A
:100F700004D28E4502D9A8F10203214443EA00407D
:100F8000A0FB0298A1EB0E014145CE46434602D399
:100F900006D14D4504D2B9EB020E68EB04030138CB
:100FA000002EA6D0B5EB0E0261EB030101FA0CFC9A
:100FB00022FA07F34CEA0303F940C6E9003198E747
:100FC0004046C5E74346D9E7034613F8012B002AFC
:100FD000FBD1181A013870472DE9F04F4FF4FA6031
:100FE00087B00AF098F84C484C4C0AF0DEF814220E
:100FF000002101A80BF091F90DF1020303930223E4
:101000000493002554F8060C0BF0B8F828B94448AE
:101010000AF0CBF807B0BDE8F08F14F8013C63B1DB
:1010200054F8060C836821461B689847021E07DAAD
:101030003C4829460AF0B9F8ECE76FF08502F7E77B
:101040000135042D04F11004DCD10FF2BC0BDBE9F7
:1010500000AB0FF2BC09D9E90089334C0425637950
:101060004BB12279012393400293A37B8DF8143076
:10107000E37B8DF815302068836801A95B68984789
:10108000011E12DA29480AF090F82949294804F08B
:1010900091FA013D04F11004E1D1274809F022F949
:1010A00041F288300AF037F8D7E7BDF90200FFF7C0
:1010B00019FA52465B46FFF77FFA42464B46FFF766
:1010C000C3F802460B4606461C480F4609F00AF9CB
:1010D0002379022B07D130463946FFF77FFC184BA6
:1010E00018601849D2E7062B05D130463946FFF77C
:1010F00075FC154BF4E7072BF3D130463946FFF763
:101100006DFC124BECE700BFA594524A29A5B43FF1
:101110004A29A594520A49406DD700080ED3000809
:1011200091D70008B2D7000808D30008D4D7000828
:1011300068D30008FC090020F9D70008E9D70008A7
:10114000F009002098D30008F8090020F4090020D5
:101150002DE9F04F476A97B014461D46CDE9044586
:10116000239E83467FB9102008F080FB0246CBF80F
:10117000240020B9A24BEA21A24809F039FFC0E9B6
:1011800001770760C760DBF82430196859B15A68E5
:101190004A60012393408B60584609F043FBDBF81B
:1011A000243000221A602B1EB9BF23F000430593A0
:1011B00000233360059F944BBCBF01223260BB43C8
:1011C00019D1229A42F20F731360C7F3130323431A
:1011D00000F0E285249B53B98C4B21E08C4B0893A3
:1011E0000833249A1360089817B0BDE8F08F874B36
:1011F00008930333F5E7DDE90423CDE90C23DDE9AA
:101200000C0100220023FFF71FFD804650B1229AF7
:1012100001231360249B13B1249A7E4B13607E4BF1
:101220000893E0E714AB019315AB00935846DDE952
:101230000C2309F077FDC7F30A560390002E7AD0ED
:101240000D9BCDF84C80C3F31303DDE90C0143F093
:101250007F5343F44013A6F2FF36194600226F4B2A
:10126000FEF7F2FF60A3D3E90023FFF7A5F960A31F
:10127000D3E90023FEF7EAFF044630460D46FFF7A8
:1012800031F95DA3D3E90023FFF796F902460B4637
:1012900020462946FEF7DAFF04460D46FFF71CFDFF
:1012A00000220746002320462946FFF7D7FC40B11D
:1012B0003846FFF717F922462B46FFF7C5FC00B961
:1012C000013F162F54D8564B03EBC703D3E9002335
:1012D000DDE90C01FFF7C2FC00284BD0013F0023E1
:1012E0001293149B9B1B5A1E45BFC3F10103069327
:1012F000002300230A9254BF06930A93002F3BDB7E
:101300000A9B0F973B440A9300230B93209B092BC6
:1013100000F28A80052BC4BF043B2093209BA3F1DD
:101320000203CCBF00240124032B00F28880DFE8F5
:1013300003F02B383657DDE914631E4406F23243BE
:10134000202BC1BFC3F140039F4006F2124324FA91
:1013500003F3D6BFC3F1200347EA030004FA03F006
:10136000FFF7B0F80122A1F1F873013E139274E780
:101370000123B5E71290B4E7069BDB1B06937B4283
:101380000B9300230F93C1E700230E93219B002BA7
:1013900058DC0123099399461A4621920CE0012357
:1013A000F3E700230E93219BFB1803F10109099336
:1013B0004B46012BB8BF0123DBF824000021042297
:1013C00002F114059D4241D94160584609F0EAF9FD
:1013D000089000283DD1134B02464FF4D571CBE65F
:1013E0000123DFE7AFF3008061436F63A787D23F3C
:1013F000B3C8608B288AC63FFB799F501344D33F04
:101400006B370108823701080000F07F6737010859
:101410005E3701082F3501082E3501080000F83F1E
:1014200040D20008F63701080124002320930E94CF
:101430004FF0FF330993994600221223ADE70123B1
:101440000E93F5E7219B09939946B5E701315200C8
:10145000B6E7DBF82430089A1A60B9F10E0F6FD89E
:10146000002C6DD0002F36DDA14B07F00F0203EBEF
:10147000C203D3E90034F805CDE910344FEA27144C
:1014800017D59C4BDDE90C01D3E90823FFF7BEF922
:10149000CDE9040104F00F044FF00308954D5CB949
:1014A000DDE91023DDE90401FFF7B0F9CDE904011E
:1014B0002BE04FF00208F1E7E10709D5DDE9100163
:1014C000D5E90023FFF778F8CDE9100108F101080C
:1014D00064100835E3E700F007817C42844B854DBA
:1014E00004F00F0203EBC203D3E90023DDE90C0192
:1014F000FFF762F8CDE90401241100234FF0020840
:10150000002C40F0E580002BD0D1129BDDE9044592
:10151000002B00F04C81784B002220462946FFF733
:101520009DFB002800F04381B9F1000F00F03F81DE
:10153000099B002B00F3E480DDE90C34CDE9043491
:10154000159B002B02DB0E2F40F342820E9A002ADD
:1015500040F067820B9CDDF818800025B8F1000F81
:101560000DD00A9B002B0ADD4345069AA8BF4346CF
:10157000D21A06920A9AA8EB0308D31A0A930B9B75
:101580000BB30E9B002B00F0A682002C00F0A18272
:1015900029462246584609F06DFA039A0146054647
:1015A000584609F0BDF903990646584609F03AF93C
:1015B0000B9B1B1B0B9300F091820B9A31465846F4
:1015C00009F058FA03900121584609F093F90F9B4E
:1015D0000446002B00F084821A460146584609F062
:1015E00049FA209B012B044603DC049B002B00F0EE
:1015F0007C820026236904EB830318690BF0ABF9A6
:101600000F96C0F120000A9B184410F01F0000F054
:101610009182C0F12003042B40F38182069BC0F12C
:101620001C00034406930A9B034480440A93069BD0
:10163000002B05DD03991A46584609F075FA039008
:101640000A9B002B05DD21461A46584609F06CFA24
:101650000446129B002B00F07682039821460BF083
:10166000C9F9002880F26F82002303990A225846A4
:1016700009F0FAF80E9B03907E1E002B00F05C82AE
:10168000002329460A22584609F0EEF8099B002B50
:10169000054603DC209B022B00F35E82B8F1000FAD
:1016A00005DD29464246584609F03EFA05460F9B9D
:1016B000002B00F0D0826968584609F073F807469D
:1016C000002840F07F820D4B024640F2EA2153E5AC
:1016D000E20706D5D5E90023FEF76EFF08F1010801
:1016E0000123641008350BE74FF002080DE700BF37
:1016F00040D2000818D200080000F03FF637010879
:101700002046AD4B00222946FEF756FFCDE90401E5
:10171000099C7E1E08F101084046FEF7E3FEDDE964
:101720000423FEF749FFA54B0022FEF78FFDA1F130
:101730005073CDE910011193002C3BD1DDE9040178
:101740009F4B0022FEF780FD02460B46CDE90423A5
:10175000DDE91023FFF7A0FA002840F05781DDE90A
:10176000102101F10043DDE90401FFF777FA0028B9
:101770003FF4E2AE00242546219BDDF820A0DE43A5
:101780004FF000082146584609F04CF8002D00F0B3
:10179000A980B8F1000F05D0A84503D041465846AE
:1017A00009F040F82946584609F03CF89AE03E46D0
:1017B0004C46B1E7834B03EBC40353E90201089B9A
:1017C0001C440E9B002B4AD002460B4600207E494B
:1017D000FFF71CF8DDE91023FEF736FDCDE9100117
:1017E000DDF820A0DDE90401FFF776FA0546FEF7F3
:1017F00079FE02460B46DDE90401FEF725FD303592
:10180000CDE9040102460B460AF8015BDDE910014F
:10181000FFF742FA002865D1DDE904236B49002077
:10182000FEF712FD02460B46DDE91001FFF734FA20
:10183000002840F00D81A24500F0EA80DDE91001AA
:101840005D4B0022FEF7B8FE5B4BCDE91001002294
:10185000DDE90401FEF7B0FECDE90401C2E7DDE9F0
:101860001023FEF7A9FECDE91001DDF820A0A04667
:10187000DDE90401FFF730FA0546FEF733FE0246C4
:101880000B46DDE90401FEF7DFFC30350AF8015BA9
:1018900002460B46A245CDE904234FF0000223D1B6
:1018A000494BDDE91001FEF7D1FC02460B46DDE9AC
:1018B0000401FFF7F1F9002840F0CA80DDE91023A8
:1018C00041490020FEF7C0FC02460B46DDE9040159
:1018D000FFF7C4F970B1C24608F1FF381AF8013CAD
:1018E000302BF8D0374655E0334BFEF765FECDE997
:1018F0000401BDE7DDE90C34CDE90434159B002B70
:10190000FFF628AE0E2F3FF725AE2E4B03EBC70395
:10191000D3E90034CDE90634219B002B02DAB9F17A
:10192000000F64D0DDE90445DDF820A0DDE90623E1
:1019300020462946FEF76AFFFFF7CEF90646FEF776
:10194000D1FDDDE90623FEF737FE02460B462046B1
:10195000294606F13004FEF777FC0AF8014B089C93
:10196000AAEB0404A14502460B4640F08280FEF734
:101970006DFCDDE9062304460D46FFF78DF90028CE
:1019800065D1DDE9062320462946FFF75DF908B158
:10199000F3075CD40399584608F044FF00238AF803
:1019A0000030229B01371F60249B002B3FF41BACAF
:1019B000C3F800A017E400BF0000244000001C4052
:1019C0000000144040D200080000E03F0000F03F5B
:1019D000A24B03EBC703D3E90034CDE90634219BC6
:1019E000002B9FDAB9F1000F9CDC7FF4C3AE9C4B57
:1019F0000022DDE90601FEF7DFFDDDE90423FFF744
:101A000041F9044600287FF4B5AE3E462546B4E0D1
:101A1000DDE90C34CDE90434159B002B01DB0E2FDE
:101A2000D6DD209A012A36DC139A82B303F23343BF
:101A30000B9CDDF81880069A1A4406920A9A012136
:101A40001A4458460A9208F055FF054686E53E4678
:101A500053469A4613F8012D392A06D1089A9A421C
:101A6000F7D10899302201360A701A7801321A70BB
:101A700038E77C4B0022FEF79FFD0022002304463E
:101A80000D46FFF7E1F800283FF450AF82E7149BC2
:101A9000C3F13603CCE70B9B09F1FF34A34208DB0B
:101AA000B9F1000FA3EB04040EDBDDF818804B4600
:101AB000C1E70B9B0F9A0B94E31A1A44DDF81880C8
:101AC0000F924B460024B6E7069BA3EB09080023C0
:101AD000B1E7039E71E50B9A039970E5039672E5F1
:101AE000209B012B17DC049BABB9059BC3F31303AD
:101AF0009BB9059B23F00046360D360536B1069B93
:101B0000013306930A9B01330A9301260F9B002B96
:101B10007FF470AD0F96012075E50026F6E73FF4DF
:101B200086AD069A1C331A4406920A9A1A449844BF
:101B30000A927CE50346F4E7099B002B2BDC209BF3
:101B4000022B09DC27E0B9F1000F1DDC209B022BE2
:101B50001ADDCDF824903E46099B002B7FF40CAE95
:101B600021460522584608F07FFE014604460398A8
:101B70000AF040FF00287FF7FFADDDF820A03123F9
:101B80000AF8013B0136FBE50E9BCDF824903E465A
:101B9000002B7FF483AD089F039821460AF05EFD79
:101BA00000F1300907F8019B089B099AFB1A9A4239
:101BB00040F3CB80039900230A22584608F054FED4
:101BC0000390E9E72A690232920005F10C010C301A
:101BD0000AF095FB01223946584608F0A5FF089BFC
:101BE00003F1010ADDE9082313440A93049B03F07F
:101BF0000103A8460B9305460AF1FF3321460398DB
:101C000006930AF02BFD4146099000F13009039834
:101C10000AF0F0FE2A4621460746584608F0F0FF33
:101C2000C268014602B3584608F0FCFD002F3ADABC
:101C300003990122584608F077FF214603900AF0E5
:101C4000D9FE002803DC29D119F0010F26D0B9F103
:101C5000390F1DD132E02846C1E700BF40D200084D
:101C600000001440000024400E9003980AF0C2FEC9
:101C70000E990C90584608F0D5FD0C9A5ABB209B43
:101C800053B90B9B43B9B9F1390F17D0002F05DDBC
:101C9000099B03F1310901E0002F2ADADDF818A0D1
:101CA0000AF8019B6EE5209B3B4304D1049B03F0A3
:101CB0000103002BBCD0B9F1390F36D1069F39236F
:101CC00007F8013BBA46013F1AF8013C392B5BD0BB
:101CD00001333B7056E5002F06DB209B3B4306D1CA
:101CE000049B03F0010313B9002AA1DCD6E7002A04
:101CF000E1DC0A9B0AF8019C534557462FD0039913
:101D000000230A22584608F0AFFDA84503904FF083
:101D100000034FF00A02414658460BD108F0A4FDDB
:101D2000804605460AF1010A66E7DDF818A009F1C8
:101D30000109B5E708F098FD2946804600230A22EC
:101D4000584608F091FD0546ECE7099B002BC8BFFB
:101D50001F46089BD8BF01271F444FF00008039976
:101D60000122584608F0E0FE214603900AF042FEA8
:101D70000028A7DC02D119F0010FA3D1BA4617F849
:101D8000013D302BFAD0FDE4089BBB429AD1089A62
:101D9000312301361370F5E4249B002B7FF41EAA37
:101DA000014BFFF73DBA00BF5E37010830B51C4B51
:101DB0001C4C18681B791C4D85B0029020688DF86A
:101DC0000C3009F0A5F90021206802F001FC002187
:101DD000206802F03FFC2868FEF796FB134BCDE924
:101DE00000010522002102A80AF0D4FB2868002186
:101DF000FEF792FE70B10023102202A9206802F0C3
:101E00000DFB206802F0F4FB09490A4803F0D2FBFD
:101E100005B030BD082310220DEB0301EEE700BF33
:101E200050D70008100A0020F40900204AD7000803
:101E3000A8D30008FC09002010B50B4C206809F05D
:101E400067F92068002102F0C3FB2068002102F03E
:101E500001FC0823206805491A4602F0DFFA2068D1
:101E6000BDE8104002F0C4BB100A002056D700089D
:101E700010B5144C206809F04BF92068002102F0DD
:101E8000A7FB2068002102F0E5FB00231A460E495B
:101E9000206802F0C3FA2068012102F0DBFB0B4945
:101EA00020683023082202F0B9FA206802F0A0FB73
:101EB0004FF4FA6009F02FF9BDE8104004490548D5
:101EC00003F078BB100A00205AD700085FD700083B
:101ED000A8D30008FC09002038B51F4C1F4820601B
:101EE0000AF04CF930B923681D481968BDE838403C
:101EF00009F05BB92068836804211B6A984720B108
:101F00001848BDE8384009F050B9206802F0AEFB2F
:101F100008B11548F5E7236814481968144D09F00D
:101F200044F90121206802F053FB206809F0F0F821
:101F30002068104C012102F08DFB0F490C4809F07C
:101F4000E0FB0E4809F031F9284609F0E6FB206075
:101F5000012009F0E0F8F7E7100A002044CE00085D
:101F6000FDD7000812D8000837D800085BD8000851
:101F7000FC0900200C0A002048D300086BD8000898
:101F80002DE9F341184B194D0746186800901B794D
:101F90008DF8043038468846FFF716F8044628685E
:101FA00009F0B6F82868002102F054FB002601343D
:101FB000B44202D802B0BDE8F0810021286802F0E6
:101FC00007FBB919042268460AF0FEFA00231A46F4
:101FD0006946286802F022FA286802F009FB4046A8
:101FE00009F099F80136E3E77ED80008100A0020CE
:101FF00008B5074B1B78962143B10648FFF7C0FF91
:10200000BDE808400449054803F0D4BA0448F5E7A0
:10201000E002002084D8000898D30008FC090020C2
:1020200091D8000808B5074B1B78962143B10648A4
:10203000FFF7A6FFBDE808400449054803F0BABA17
:102040000448F5E7E10200209FD8000898D3000873
:10205000FC090020AAD800082DE9F04F91B00F46E6
:1020600091460193044658B9A749A84AA84840F2A6
:102070005F3309F0CEF940F25F31A44809F0C2F9AC
:1020800041B903784678807800EB83002044BE4253
:1020900018D8071B94F802A0E3780293BAF1000F56
:1020A00002D01A9BD90715D4029B9BBBB9F1000F34
:1020B00003D0019A39462046C8473D46284611B00C
:1020C000BDE8F08F451C2846FEF77EFF013028440E
:1020D0000137DCE723789A00049204EB8306B9F118
:1020E000000F40F0CF803D46B2440027564521D036
:1020F00016F8013B54F82300FEF766FF1B9B0130E6
:1021000033B11C9B9F423EBF1B9B23F81700013736
:102110000544EBE71A9B9A07C8D523789A000492E6
:1021200004EB8306B9F1000F42D13D46BAF1000F2E
:102130001AD157461A9BDDF808A0DFF8D8817649F6
:1021400003F0050BB24403F002025645B6D016F870
:10215000010B54F82000404501D388420BD3002ADC
:10216000F3D04FF000090BE01A9B13F004071CBFDB
:1021700056444F46DEE71A9BDB0714D54FF00109A2
:102180000192FEF721FF1B9B019A6349013033B195
:102190001C9B9F423EBF1B9B23F817000137054441
:1021A000B9F1000FD1D0BBF1000FCED1013DCCE78A
:1021B000BAF1000F6BD01A9A12F004086AD0D04618
:1021C0000CA84FF0000B5246314603930AF097F8E3
:1021D000039BDFF840E106EB0A020392DDE90221EE
:1021E00002EB010C1A9A4C4E02F0020205921A9A66
:1021F00002F0010102F00400039A94454CD11A99AF
:10220000667811F0020F06EB0B020CBF404600206F
:10221000CD07D2B200F1A78011F0040F14BF4146E0
:1022200000216270A170E070019A04990593204624
:10223000C847051EFFF642AF059B2370029B6670E0
:10224000019A84F802A0E37041460CA8C847061E14
:10225000C0F2AE80049B0398A7EB0A01C91ADDE91E
:102260000123C91AC8470028C0F2A4802E4435189B
:1022700000270DF1200ABB4577DC0021019A0846B2
:10228000C8471BE7D34608A84FF000089BE7D04695
:10229000D3469EE7C3469CE7039D15F8012B0395A3
:1022A00054F82250754501D3B5420FD3059D002D3A
:1022B00038D1B8F10F0F4CD91849144A144840F2DC
:1022C000FF3309F0A6F840F2FF31D6E661B1BBF169
:1022D0000F0F34D912490D4A0D4840F2F23309F07C
:1022E00098F840F2F231C8E6002885D0B8F10F0F17
:1022F0002FD90A49054A064840F2F53309F089F812
:1023000040F2F531B9E600BF4919010897180108F4
:10231000C518010884CC0008C038010883190108D9
:1023200064190108BBF10F0F09D92349234A244836
:102330004FF47F7309F06DF84FF47F719DE60BF158
:1023400001050BF1400BEB440BF8202C5FFA85FBE9
:1023500052E708F1010508F14008E84408F8102C9C
:102360005FFA85F848E700215BE717F80A308DF837
:102370001F3054F823801B9BC3B133F81760019AB8
:1023800001210DF11F00C847002813DB054426B9C1
:102390004046FEF719FE461CB6B2019A3146404649
:1023A000C847002806DB0544013764E71B9EE6E7C3
:1023B000354683E6054681E6641901089718010849
:1023C000C5180108014B1B68184700BFA00000207A
:1023D000014B1860704700BFA000002007B50B46F6
:1023E000002102460091034800F08CF903B05DF82B
:1023F00004FB00BFC523000830B587B00025CDE938
:1024000003010446009503A90548059500F07AF9F3
:10241000DDE904309842B8BF255407B030BD00BF95
:1024200085B100082DE9F8434B1E0B4006680F46A6
:10243000144611D0C1F1000909EA01094A46042AEB
:1024400003F1FF3128BF042219420CD11F46E4B921
:1024500000252846BDE8F883042913D8BDE8F843D1
:10246000114608F060BF2C492C4A2D484FF4A27346
:1024700008F0CFFF2B4808F0CCFF28484FF4A2719A
:1024800008F0C0FF99460422E1E7B368B3EBD40F2C
:10249000DED904F10B013944891AC908304608F025
:1024A000F1FE80460028D3D009F1040505EBC005F4
:1024B0007B1E35441D447F423D40A5EB09052C445D
:1024C0002B1F07349B1B24F00704A41BB0EBD30F76
:1024D0004FEAD3074FEAE40408D201463A463046B1
:1024E00008F007FF4146304608F088FE394630467E
:1024F00008F07FFE3844844207D23046224608F076
:10250000F8FE2146304608F079FE06EBC7067388D0
:1025100043F0010373809CE76F1A0108A3190108B7
:10252000C51801088A1A0108B2F5802FF8B50446CB
:102530000ED33B493B4A3C4840F2EB1308F069FF9D
:102540003A4808F066FF40F2EB11364808F05AFFAF
:10255000042A0CD83649334A33484FF4F97308F04B
:1025600058FF344808F055FF4FF4F971EDE7043A8D
:10257000C81D0A4420F0070022F00702121A172A89
:102580004FEAD2030CD82C49264A274840F2FB13C5
:1025900008F03FFF274808F03CFF40F2FB11D4E76A
:1025A000B3FA83F1C1F12006C1F12401890007319A
:1025B000C9084D1C20609D424FF000048360C46038
:1025C0000CD91E49174A18484FF4037308F021FF2D
:1025D000184808F01EFF4FF40371B6E700F10C0530
:1025E00005EB860645F8044FB542FBD14D0045F09A
:1025F0000105458000EBC1065D1A6F0004807780FD
:10260000861820F8311000EBC303748085525A8875
:1026100042F001025A80BDE8F84008F0EFBD00BF6B
:10262000A71A0108A3190108C5180108BD1A010855
:10263000D41A0108F51A01080E1B0108371B0108FE
:10264000F0B5094E016802460A2700200B46013109
:102650001C78355D6D0701D41360F0BD07FB0043A6
:10266000A3F13000F2E700BF1F3601082DE9F84F53
:1026700015469A46D378224A12F803B06F2B80464B
:102680000F460BF0030B29D024D8582B0CBF102673
:102690000A26DDF828903246002340463946FEF7E8
:1026A00063FA092AD4B21ED83034B045E4B277F1C7
:1026B000000709F8014D01D3D14511D82B789B06AD
:1026C00005D5082E15D1AB7843F00803AB7048460A
:1026D000BDE8F88F03F0F703702BD7E70826D8E79B
:1026E00080460F46D7E7BBF1010F0CBF3734573494
:1026F000DBE7102EEBD1AB7843F01003E6E700BF29
:102700001F3601082DE9F04F9FB08246039116460F
:102710001C460025307810B9284600F087BD731C90
:102720002528069306D00399D0470028C0F27E855D
:1027300001351FE21822002110A809F0EEFD737880
:10274000252B00F0BC800023711C98469E469C46B9
:1027500018460F4611F8012B2B2A00F0DF8000F2FB
:10276000D680202A00F0DD80232A00F0DD802BB106
:102770009DF8483043F040038DF84830B8F1000F21
:1027800005D09DF8483043F020038DF84830BEF165
:10279000000F05D09DF8483043F010038DF8483005
:1027A000BCF1000F05D09DF8483043F008038DF8C8
:1027B000483028B19DF8483043F004038DF8483084
:1027C0009DF8483003F04401442903D16FF3861388
:1027D0008DF848309DF848300E9743F080032A2A40
:1027E0008DF8483040F0A5809DF8493043F0010352
:1027F0008DF849307B1C1A782E2A9DF849200CBF91
:102800000121002161F341028DF849200CD15A1CAD
:102810000E925A782A2A40F09C809DF8492042F076
:1028200004028DF8492002331A786C2A00F0BD802A
:1028300000F29F80682A00F0A5806A2A00F0BE801E
:102840004C2A00F0C38013F8012B0693782A8DF8E8
:102850004B2000F205816D2A00F2C580692A00F242
:10286000FF80572A00F2DE80412A04D0A2F14503FE
:10287000022B00F2F5809DF84A3002F0DF020421BD
:10288000A2F1410861F30203D8F100029DF849105A
:102890008DF84A3042EB080262F3C7110A068DF840
:1028A0004910CBB200F11B8103F07802182A40F0E6
:1028B00005816FF3C6038DF849300023F4E0B21CA4
:1028C00006928DF84B309DF84930DF0740F10981C1
:1028D00054F8042B0492002A08DA9DF8482042F0AC
:1028E00004028DF84820049A52420492580740F19D
:1028F000008154F8047B002F80F2FF809DF849305E
:102900006FF341038DF849304FF0FF37F5E02D2A82
:102910000DD0302A7FF42BAF01231AE74FF0010CC2
:1029200017E74FF0010E14E74FF0010811E70120FF
:102930000FE70EA8FFF784FE0E9BBB423FF45BAF90
:102940009DF848201390C00F60F341028DF8482095
:1029500051E70EA8FFF774FE9DF848301490C3F3BA
:10296000400242EAD07262F341038DF848300E9B78
:102970005AE7742A26D07A2A7FF465AF9DF8492059
:1029800006210CE05A78682A9DF8492006D10121D9
:1029900061F3C6028DF84920023354E7022161F346
:1029A000C6028DF8492001334DE75A786C2A9DF80C
:1029B000492001D10421EBE70321F0E79DF84920EC
:1029C0000521ECE79DF849200721E8E7BDF84820FC
:1029D00022F4F04222F0020242F4804242F002026B
:1029E000ADF84820DFE76E3AD3B201229A4040F2B8
:1029F00082431A429DF8493039D112F0240F61D137
:102A0000D1072DD59DF84A2003F07803A3F1400C9F
:102A1000032161F30202DCF100038DF84A2043EB4D
:102A20000C0341E0A2F15801C9B2012000FA01F102
:102A300011F4624F7FF41FAF40F6010319429DF875
:102A400049301AD111F4043F0AD09DF84A2060F3AE
:102A5000020203F07803402B8DF84A207FF42DAF5B
:102A60009DF8483043F001038DF8483025E79DF884
:102A70004A20022161F30202EBE79DF84A1002208E
:102A800003F0780360F30201402B8DF84A1002BF77
:102A90009DF8481041F001018DF84810632A7FF439
:102AA0000CAF003B18BF01239DF84820C2F3400142
:102AB0000B4363F341028DF8482004E713F0380F0D
:102AC000CED1FAE69DF84A20032113F0780F61F386
:102AD00002028DF84A2014BF01230023E4E70123FA
:102AE000E2E79DF94820002AB4BF139A4FF0FF3265
:102AF000FBE699077FF508AF149F9DF84910002366
:102B0000CDE913339DF84A3003F00702042A07D1B8
:102B10008A0705D49DF94920002AACBF06270D2756
:102B200003F00703012BC1F3C30133D1CB1E042BE8
:102B300004D8DFE803F0214646212100236801295B
:102B40004FEAE372CDE910321CD19DF94030DA171B
:102B5000CDE9103204349DF8483007939B0750D0DC
:102B6000069B03993246504608F035FC0028C0F217
:102B70005D830544069ECDE554F8043BDA17CDE9A4
:102B80001032E8E70229E5D11AB243F3C033CDE9A8
:102B90001023DFE7022B24D1CB1E042B04D8DFE85F
:102BA00003F0181010181800012954F8043B4FF0D6
:102BB000000214D00229CDE91032CCD19BB210937F
:102BC000C9E7073424F00704F4E80223CDE9102311
:102BD000C1E754F8043B109300231193BBE7DBB229
:102BE000CDE7042B08D1073424F00704D4E90023EF
:102BF0000834CDE91023AEE7032BACD154F8043BE5
:102C0000DDE79DF84BB0BBF1780FB3D8BBF1570FA0
:102C100049D8BBF1250F00F09180BBF1240FA9D951
:102C2000BBF1410F03D0ABF14502022AA2D8DDE986
:102C30001012002AC0F23681079B180700F1358177
:102C4000C3F300194FEA4919C2F30A50C2F3130241
:102C5000002840F02D8151EA020614BF012600260B
:102C6000D20242EA5152C902BBF1460F40EA010EBC
:102C700042EAE07C08BF4FF0660B5EEA0C0CCDE93F
:102C80000C1200F09E81002E40F049810D9A42F016
:102C90000042A0F2FE380D920020DDE90C1206463B
:102CA0004FF0050C55E1ABF15802202A3FF662AF18
:102CB00001A050F822F000BF432E0008752B000839
:102CC000752B0008752B0008752B0008752B000864
:102CD000752B0008752B0008752B00082F2C000899
:102CE000752B0008C72D0008DB2D00082F2C0008CD
:102CF0002F2C00082F2C0008752B0008DB2D000856
:102D0000752B0008752B0008752B0008752B000823
:102D10007D2E0008432E0008492E0008752B000860
:102D2000752B0008432D0008752B0008432E000862
:102D3000752B0008752B0008432E00080399584690
:102D4000F2E4002F109E3ADB3946304609F04FFC82
:102D50003718002E3FF40EAF4FF000099DF84A30AF
:102D600013F01002059200F05682023013F0400377
:102D7000DDF84C80089318BF149BCDF81C804044AC
:102D800018BFC018049B002B40F360829DF84820B8
:102D90001B1A50070493C2F3800B00F157825106AF
:102DA00040F14782B9F1000F07D003994846D04758
:102DB0000028C0F23B820135D94630223AE2304643
:102DC000FEF702F9C4E7109B8DF85C304FF0000964
:102DD0000DF15D0717AE0120C0E7079B1E0758BF26
:102DE000C3F30019DDE9102354BF4FEA49194FF02E
:102DF0002B09002B06DA524263EB4303CDE9102383
:102E00004FF02D090DF175030093DDE9100117ABAB
:102E100012AAFFF72BFC0646002F0CDB9DF848207A
:102E20000DF175039B1B6FF386129F428DF84820AE
:102E300001D9FB1A1393002E3FF49CAE0DF17507D8
:102E40005BE04FF00009DDE71098002800F0DE811C
:102E50000DF17503009312AA17AB0021FFF706FCD2
:102E6000BDF84A3003F0EF0343F4F04343F010039E
:102E70000646ADF84A304FF00009CDE7109B072910
:102E80003FF678AEDFE801F00C04060C08080C0CE5
:102E90001D706FE61D806DE6EA17C3E9005269E612
:102EA0001D6067E64FF02D09CEE64FF02B09CBE60B
:102EB00040F2FF76B0422FD10BF101039E48DBB206
:102EC0000A43C35C03F003031ED1012B0BBF49234C
:102ED00069234E216E210CBF462266228DF85C309C
:102EE0009DF848308DF85D106FF386138DF85E20E5
:102EF0008DF848300DF15F0717AEB81BB9F1000F20
:102F00003FF42CAF013029E7012B15BF6E234E2370
:102F1000612141211A46E1E70026A1E6013849185E
:102F20005241002AFADACDE90C12AFE6490841EA2B
:102F3000C2715208B2F1333F404608F10108F5D2A0
:102F40000CFB02FEA1FB0C1200F102087244013ED0
:102F5000012018F1020FE9DB08B1CDE90C12B8F13C
:102F6000000FDDE90C212FDCC8F1040008F11C087A
:102F7000A0F1200CC24021FA00F301FA08F80BF08E
:102F8000DF0042EA080221FA0CFC472842EA0C0260
:102F900008933AD1F31C01DBB7422BDAABF1020301
:102FA000002F5FFA83FB7FDD9DF84800800607F164
:102FB000FF3779D43B1E18BF0123059307F10108A1
:102FC0002DE04FF0000867E6023241F100010CA845
:102FD000CDE90C2108F0D0F9DDE90C2108F1FF382A
:102FE000013692184941002908F1FF38F9DACDE994
:102FF0000C21B4E79DF848309906A7EB060751D499
:103000003B1E18BF0123059304E00023BBF1660FAC
:103010000593D3D117EB06084FF0660B46D4B8F1F1
:10302000100FA8BF4FF0100810200B904FF0006158
:103030000020CDE90E01DDE90E03B8F1000F38D113
:103040000899121841EB0301B1F1805F3FD2CDE93D
:103050000C21079BBBF1660F03F0200240F0B58006
:10306000002E3FDC30218DF85C10002A66D1002F45
:1030700040F3AF812E228DF85D2086B17242BA42B4
:10308000A8BF3A469DF84A101392002AA7EB020700
:10309000D4BF0022012262F345118DF84A100DF1D0
:1030A0005E0837E00023AEE7002386E74FF0000814
:1030B000BAE7400840EAC3705B08CDE90E030EA8EA
:1030C000099208F1FF3808F057F9099AB3E7520856
:1030D00042EAC1720CA84908CDE90C21013608F07A
:1030E0004BF9B6E70DF15C080B99002909DD0BA936
:1030F0000CA8079208F058F9013E08F8010B079A4E
:10310000F2D113969AB9002F40F361812E2108F86D
:10311000011B0026002F1ADD0B9A002A17DD0BA9D0
:103120000CA808F041F9013F08F8010BF2E72E2244
:1031300008F8012BEDE700BF1E3601082E228DF89E
:103140005D20002EABD0002F98DC0DF15E08059BB2
:10315000002B4ED1149747460BF0DF02452A23D1AE
:10316000002EBABF76422D232B23632EC8BF6421C5
:103170007B70D1BFBA1CB6FBF1F3FA1C03F130002F
:10318000C8BF01FB13664FF00A01C8BFB87087F8CB
:1031900000B0B6FBF1F3174603F1300001FB1363F7
:1031A000303307F8020B5370139B002B2CDC149B5D
:1031B000002BD4BF002301239DF84A2063F386121D
:1031C00000238DF84A203B7096E60BA90CA80792C5
:1031D00008F0EAF8079A8DF85C00302818BF06F16D
:1031E000FF3612B9002F40F3F4802E228DF85D20B7
:1031F00055E7474608F1FF3817F8012C302AF8D078
:103200002E2A08BF4746A7E70123D5E7724F81461C
:103210007E1F0520A2E51A0748BF0130A6E510462B
:1032200009920399D0470028099A05DA1FB0BDE832
:10323000F08F2022DDF810B0594600290BF1FF3B3A
:10324000EDDC049BCDF810B02B445D1AB9F1000FF2
:1032500005D003994846D0470028E7DB0135089B95
:10326000002B79D09DF94930002B29DBDFF86C91D8
:103270003346187819F8002052079B4603F10103E2
:103280003FD49DF84A30AE1B98065E4407D44246B0
:10329000002A08F1FF383BDC079B33449E1A9BF859
:1032A00000002E280AD10399D0470028BEDBB8F1D0
:1032B000000F06F1010631DC0BF1010B5D4638E031
:1032C000B14699F800007028C84609F1010913D1E8
:1032D000AE1B149D46443544AB1B002B34DC0399D4
:1032E0003B464246504608F076F800289EDB3044C4
:1032F000049E0546064465E00399D0470028E0DABD
:1033000094E705930399D0470028059BB1DA8DE730
:1033100003993020D0470028B9DA87E70399302095
:10332000D04708F1FF38C0E70399D0470028FFF6DF
:103330007DAF287819F800305907A84605F1010536
:10334000F2D4A6EB0B06C4E703993020D04700283F
:10335000FFF66CAF0136BFE79DF84A30DA0601D4BC
:103360001B0706D503993020D0470028FFF65EAF33
:103370000135059B3BB103999DF84B00D0470028D0
:10338000FFF654AF0135A84406E003993020D0473A
:103390000028FFF64BAF0135A8EB0503002BF4DC4A
:1033A00003993B463246504608F015F80028FFF6D0
:1033B0003DAF28449CE703992020D0470028FFF622
:1033C00035AF0135731B002BF5DCFFF7D3BB164679
:1033D000BDE60DF15D08BAE6671B01081F3601085E
:1033E00038B50D4604462022002108F096FFEB6810
:1033F000E361AB68A3612B6823626B6863620022A0
:10340000A2622A6923B1591E194208BF42F0010283
:1034100022610122002104F12C0008F0E0FE48B1F5
:1034200005490648064A2E2307F0F3FF04482E21DB
:1034300007F0E8FF38BD00BF8E1B0108C518010862
:10344000681B01082DE9F04F87B0CDE90123436ADD
:10345000013B8B4204460F46C0F0A0800026B246D6
:1034600000F114054FF01003EFF3118B83F3128872
:10347000BFF36F8F2846D94604F072F958B94A4A0B
:103480004A494B488E2307F0C4FF2946494807F0B4
:10349000C0FF8E2150E0284604F080F905A920469F
:1034A00007F0C4FF0599B942804628D32268236AF1
:1034B00013F8221021F0030103F8221003EB820A13
:1034C00021683A46204607F0D3FF4FF000082060FD
:1034D000284604F053F920B389F31188BFF36F8FA6
:1034E000B8F1000F5CD046B19DF81330002BB9D075
:1034F000A36913B13146204698470026B2E718B1B8
:10350000204607F0C3FFE3E7DDE90132134336D07D
:10351000039108F04AFE039988BB284604F02EF96F
:1035200068B9214A24492248B92307F072FF294685
:10353000224807F06EFFB9211B4807F063FF8BF3A9
:103540001188BFF36F8FDDE9012304F12C0004F033
:10355000EDFA80464FF01003EFF3118983F31288E0
:10356000BFF36F8F284604F0FBF8002887D0284669
:10357000B8FA88F804F012F94FEA5818A8E7226957
:103580000DF11303C2F34002204607F0A2FFB0F191
:103590000008064618BF4FF0010899E74FF0000AEF
:1035A000504607B0BDE8F08F971B0108C41B010807
:1035B000C5180108D91B0108F11B0108081C0108E6
:1035C0002DE9F0410446C36908460E46984704F1C8
:1035D000140507464FF01003EFF3118883F31288A8
:1035E000BFF36F8F284604F0BBF868B9194A1A492F
:1035F0001A488E2307F00DFF2946194807F009FFE6
:103600008E21144807F0FEFE284604F0C7F83378F0
:1036100043F00103337061683A46204607F028FF03
:103620006060204607F048FF284604F0A7F858B924
:10363000084A0C490948B92307F0EBFE29460A4815
:1036400007F0E7FEB921DCE788F31188BFF36F8F3D
:10365000BDE8F081971B0108C41B0108C5180108CB
:10366000D91B0108F11B0108081C01082DE9F843CA
:10367000044600F114074FF01003EFF3118883F3B1
:103680001288BFF36F8F384604F06AF8054668B9B0
:10369000334A344934488E2307F0BBFE3946334859
:1036A00007F0B7FE8E212E4807F0ACFE384604F036
:1036B00075F8D4E901329A4288BF636A9B1A002BDD
:1036C0003FD0216A11F8223013F0030001EB820988
:1036D0003AD0022803D151F82260B60805D1D807A4
:1036E0001FD4E369484698470646A16832462046FB
:1036F00007F0BEFEE168A0603246204607F0B8FE43
:10370000E060384604F03AF800BB154A18491648FC
:10371000B92307F07EFE3946164807F07AFEB92134
:10372000C1E743F0020301F822304846E369A56887
:10373000984729460246204607F09AFE0025A060D9
:10374000DFE71D46A946DCE70546FBE788F311885D
:10375000BFF36F8F002D8ED14846BDE8F88300BFC0
:10376000971B0108C41B0108C5180108D91B0108D3
:10377000F11B0108081C01082DE9F0410446C3694A
:1037800008460D46984704F1140607464FF010030B
:10379000EFF3118883F31288BFF36F8F304603F085
:1037A000DFFF68B9234A244924488E2307F031FEFD
:1037B0003146234807F02DFE8E211E4807F022FED9
:1037C000304603F0EBFF2B786FF300032B70236977
:1037D0009B0705D5E268236A03EB82039D4219D15A
:1037E0002B786FF341032B70E1683A46204607F0CF
:1037F0003FFEE060304603F0C1FF80B90D4A114939
:103800000E48B92307F005FE31460F4807F001FEC8
:10381000B921D2E72B6867F39F032B60EAE788F3AF
:103820001188BFF36F8F04F12C00BDE8F04104F064
:103830003FB900BF971B0108C41B0108C518010848
:10384000D91B0108F11B0108081C01084FF01002E8
:10385000EFF3118382F31288BFF36F8F83F3118824
:10386000BFF36F8F024B034A1A600020704700BFFE
:103870000401002000127A0030B51049104889B0C8
:10388000002208F007FD0F4D0F4900220023CDE96B
:10389000062300240E23CDE90334CDE901440B4B6C
:1038A00000944FF40062284603F0A2FE084928461F
:1038B00008F081FC204609B030BD00BF053A000881
:1038C000B008002030040020801000200D3C0008CB
:1038D0001D1C01082DE9F047DFF858800446074613
:1038E0004FF0010914B93846BDE8F08794FAA4F501
:1038F000B5FA85F509FA05F32E0108EB05156FEA0F
:10390000030A24EA03042B7B002BEBD058F8063083
:103910001B694BB94644042273682846196807EAB4
:103920000A0700F06FFADDE7284698470028D9D14A
:10393000F0E700BFE0D100082DE9F84F2B4D2C4BEC
:103940005B1B902B814688460BD92A492A482B4A73
:103950004FF4847307F05DFD28484FF4847107F03D
:1039600051FD274ABFF35B8F52E8004F611C42E8CC
:1039700000100028F8D1BFF35B8F1CB10024204653
:10398000BDE8F88F1F1126464FF0010ABE4210DB3A
:10399000B9F1000FF3D0002CF0D02046FFF79AFFCA
:1039A0000446B8F1000FF6D00021642005F048F974
:1039B000F1E72B7B7BB1D5F800B0DBF80C300BB115
:1039C00028469847DBF8103043B96B680422196821
:1039D000284600F017FA01361035D7E728469847F1
:1039E0000028F2D00AFA06F31C43F4E7E0D10008FD
:1039F000F0D10008521C0108C5180108251C010857
:103A0000600A0020014804F053B800BF9C03002066
:103A1000014B53F820007047CCD3000810B5044C7C
:103A2000237813B9034804F043F80123237010BD31
:103A3000340C00209C0300200C4BBFF35B8F53E839
:103A4000001F013143E80012002AF8D1BFF35B8F59
:103A500058B1BFF35B8F064B53E8001F013943E8B1
:103A60000012002AF8D1BFF35B8F7047580A00207C
:103A70005C0A00200020064BBFF35B8F014653E831
:103A8000000F43E80012002AF9D1BFF35B8F7047A3
:103A9000580A0020F8B5FFF7EDFF0A4C0A4D2D1B20
:103AA00007462D110026AE4200DBF8BD63685B7946
:103AB0002BB123685B6813B139462046984701361D
:103AC0001034F0E7E0D10008F0D1000801490248C5
:103AD000FFF786BCB8D30008180A0020084A08B5CA
:103AE00000231370074A1360074B084A1A604FF40B
:103AF0007A7000F02BFCBDE80840FFF7E7BF00BF7D
:103B0000350C0020580A0020A4000020C7B500088A
:103B10000146002201480023FFF794BC180A002048
:103B20000148FFF7A3BD00BF180A00200146014865
:103B3000FFF722BE180A0020014807F024BD00BF8D
:103B4000180A0020F8B5194B187870B3FFF7E8FF92
:103B50000546A8B1BFF35B8F154B53E8001F013931
:103B600043E80012002AF8D1BFF35B8F114C124ECC
:103B7000361B36110027B7420CDB2846FFF7D6FF6D
:103B80000E4B1B68002B01DDFFF784FFBDE8F840FA
:103B9000FFF7D2BF63685B7923B1236829461B68AE
:103BA0002046984701371034E5E7F8BD340C002073
:103BB0005C0A0020E0D10008F0D10008580A00207B
:103BC000F8B50F4F3D787DB90E4C0F4E29460120B8
:103BD000FFF7B2FE361B3611B54206DBFFF7B2FF28
:103BE0000028FBD101233B70F8BD63685B791BB1F2
:103BF000236820469B68984701351034ECE700BFE6
:103C0000350C0020E0D10008F0D100082DE9F84F74
:103C10002A4D2B4BED1A002D0BDC2A492A482B4A42
:103C200040F28F2307F0F5FB284840F28F2107F080
:103C3000E9FB00210846FFF77FFE044668B34FF416
:103C4000FA76002705F02EF8214B186030B1214B91
:103C50001B68092B02DD204803F02AFFDFF878B04B
:103C60004FEA2518002544B12046FFF733FE0446ED
:103C700018B94FF0FF364FF0FF37FFF763FF81466B
:103C800048B91DB10E4D8246C2450BDB32463B465C
:103C9000584603F04BFF4D46E5E74FF0FF364FF037
:103CA000FF37CFE72B689B691BB1002211462846DE
:103CB00098470AF1010A1035E6E700BFF0D1000885
:103CC000E0D10008761C0108C5180108251C010870
:103CD000540A00205C0A00209C03002013B5344BDA
:103CE0001B68044698472146A0603248FFF768FCED
:103CF000BFF35B8F304B53E8002F511C43E800109B
:103D00000028F8D1BFF35B8F2C4B1B78002B34D0ED
:103D10004FF01003EFF3118483F31288BFF36F8F1A
:103D2000274803F01DFD68B9264A274927488E23F6
:103D300007F06FFB2249264807F06BFB8E212148D4
:103D400007F060FB1E4803F029FDFFF7FBFE1C484F
:103D500003F014FD58B91B4A1E491C48B92307F04B
:103D600058FB17491C4807F054FBB921E7E784F3D7
:103D70001188BFF36F8F02B010BD184B1B68002B6A
:103D8000F9D052B900220023CDE90023144842F2B1
:103D90001072002305F0D2FBEDE70A2AEBD11048A0
:103DA00008F084FA0F4802B0BDE8104003F080BE6E
:103DB000A4000020180A00205C0A0020350C002016
:103DC000140A0020971B0108C41B0108C51801082C
:103DD000D91B0108F11B0108081C0108540A002026
:103DE000B00800209C030020044A054B9B1AB1EB4D
:103DF000D30F34BF52F831000020704780D1000843
:103E0000E0D1000808B50D4BC31A1B110133DBB21A
:103E100048B90B490B480C4ADE2307F0FAFA0A4866
:103E2000DE2107F0EFFA42681371436819604368B6
:103E300001225A71BDE80840FFF7F0BDE0D100084B
:103E4000261D0108C5180108EE1C01082DE9F04FD8
:103E50008FB0C1F3CB44C1F3492605900D4690467F
:103E600099461734002E3ED04FF0020A4FF0040B53
:103E700009AF002231460BABCDF808B00197CDF861
:103E800000A04046CDE90B220D920796FEF7E4F81C
:103E9000C0F30903181920F0070020FA0AF01E46A3
:103EA00063F352250693FFF733FE044608B3069BDF
:103EB0000C93103000220B900D92CDE9017B124A39
:103EC0000799CDF800A00BAB4046FEF7C5F80028D7
:103ED0000FDA0E490E480F4A482307F09AFA0D48A8
:103EE000482107F08FFA24F007008008FFF710FE42
:103EF000044666F3522505994B462A4620460FB0E4
:103F0000BDE8F04F07F082BBE1B50008691D01086C
:103F1000C51801083D1D01080EB403B503AB0146E9
:103F200053F8042B0448019307F097FB02B05DF8A7
:103F300004EB03B0704700BF593F0008CA0605D420
:103F40008B064CBF02490349FFF7E6BF704700BF2D
:103F5000A0320108721D010838B54B681A68CB6899
:103F60009A4205460C4602D1084607F07DFB63687D
:103F7000BFF35B8F53E8002F511C43E8001000286B
:103F8000F8D1BFF35B8FA3689D5463681A68E36838
:103F90009A4209D905490648064A792307F039FAB1
:103FA0000448792107F02EFA002038BDA41D01082D
:103FB000C5180108751D01082DE9F04F89B09A4612
:103FC000DDE913739DF848B00593159B169E069284
:103FD00004460D460493BBF1000F00F0858006F007
:103FE0000803079307F0FAFA06F0020902460028D0
:103FF00049D08D492046FFF78FFF8046B9F1000F69
:1040000008D016F0440F40D188492A462046FFF7D1
:1040100083FF804406F0010353B1854B854953F873
:104020002B20854B2046002A08BF1A46FFF774FF55
:1040300006F00803002B54D0804B814953F82B2005
:104040002046FFF769FF0546069B2BB17D491A46BE
:104050002046FFF761FF0544BAF1000F05D07A4909
:1040600052462046FFF758FF05444544002F49D1EA
:10407000049B002B60D1F30700F1CF80314620462E
:10408000FFF75CFFC3E08046B8E7704B1868002874
:10409000BFD06F4B4FF47A791B68B5FBF3F54FF443
:1040A0006161B5FBF0F300FB135509FB05F54FF01B
:1040B0003C0CB3FBF1F201FB1231B5FBF0FEB1FB9E
:1040C000FCF300FB1E550CFB131109FB05F50091D9
:1040D000B5FBF0F55F49CDE901E52046FFF71CFF90
:1040E00097E706F00805AFE7BAF1010F06D1EFB97F
:1040F000049B002B00F08B8000251DE0002FF7D0E3
:10410000554814E0554856493B46224607F00BF8FF
:1041100000280EDA53495448544A4FF4007307F00C
:1041200078F952484FF4007107F06CF94B485D463E
:10413000E9E7049B002B66D0DFF83481DFF8349187
:10414000049F3146102F204628BF1027FFF7F6FEA8
:104150004FF0000A554543DC059B49461A78204636
:10416000FFF7DAFE4FF0010A1AF0070F03D14146BC
:104170002046FFF7D1FE574539D9059B494613F82C
:104180000A202046FFF7C8FE0AF1010ABAF1100F13
:10419000EAD1394920464FF0000AFFF7BDFE5246EA
:1041A000059B9A5C354B995C11F0970F08BF2E2246
:1041B00033492046FFF7B0FE0AF1010ABAF1100FA9
:1041C0001AD01AF0070F03D141462046FFF7A4FE8C
:1041D00057455246E4D841462046FFF79DFEEBE79F
:1041E00041462046FFF798FE0AF1010AB2E7254949
:1041F0002046FFF791FEC7E7059B3B440593049BD0
:10420000DB1B04939CD1BBF1000F7FF434AF20463D
:1042100009B0BDE8F04F07F027BA074A0549204624
:10422000FFF77AFE2AE700BFD91D0108DD1D01084E
:10423000D8D30008021E0108D41D0108ECD30008E1
:10424000051E01080B1E01080F1E0108680A002048
:10425000640A0020E61D010883B60008593F0008E3
:104260005BB60008141E0108C5180108751D010879
:1042700082D800081D1E0108231E01081F360108F0
:10428000251E010880D800082DE9F0410F884B68F1
:104290008E6886B005460C469046C7F382175BB120
:1042A000134A9B1A43F3CF0100291FDB2078C0F388
:1042B000C200FFF799FD03462146608851F8102B94
:1042C0000097C2F34922002A01EB0204C0F3CB009D
:1042D00008BF0021CDE90308CDE9011400223146D1
:1042E0002846FFF769FE06B0BDE8F0810023E3E74A
:1042F00080D1000873B542F20F738B4228BF0B4682
:1043000005680F4A04460521684606F05BFF6368AE
:104310000C495B6806460B22284607F091F9636852
:104320003246694628465B6807F08AF963680649A1
:104330005B681B22284607F083F902B070BD00BFFE
:10434000312F0108441E0108281E0108074A0021D8
:104350000123904206D8064A01B901231360054B98
:104360001860704740085B000121F2E740420F00EF
:10437000640A0020680A0020014B00201960704781
:10438000800A0020024B034801221A7007F06CB922
:10439000370C00201CD400080148FFF7ABBF00BF5A
:1043A0001CD4000810B5064B18680C46FFF730FB0C
:1043B00021460346BDE8104002480F22184700BFBF
:1043C000800A00201CD40008F8B5074F0D460446AB
:1043D0004618B44201D12846F8BD14F8011BBB6849
:1043E00001485B689847F4E7E4CD000808B5074842
:1043F00007F0C4FE48B906490648074A6F2307F08C
:1044000008F805486F2106F0FDFF08BDE4CD00085F
:10441000A51E0108C5180108701E01082DE9F04FFE
:10442000664C8FB01646A26802911F46002A00F023
:10443000C2802368002B00F0BE80237D03EB430382
:1044400002EB830300939B795D070FD05C4B0D93C8
:1044500002230C935B4800230CAA4FF48251FFF710
:10446000F5FC6FF015000FB0BDE8F08F637BD80747
:1044700002D517F007083DD0534BE8E7009BE289CF
:104480005B793344934204DD009B9B793B449FB2AC
:104490000026217DA06894F91530627B039301EB1F
:1044A000410100EB8105029B95F807C013F8083025
:1044B000C2F3400204922A796345C2F38002059256
:1044C0001FD32A7A9A4238BF20236A7995F806E0EA
:1044D00050F8211012FB0EF2D208A3EB0C0303FBE1
:1044E000021301937BB90023039A134433449EB211
:1044F00008F101080298FCF767FD4045BED800208E
:10450000B1E72023E1E7FB0806934FF000096B7940
:104510009945E9D22B484FF0000A2CE0069BE1892F
:10452000534406EB090B01FB03BB63689B45DAD2DE
:104530002B79D90728D5019B02FB093212F80A30E2
:10454000DDE904218A4211D01A0142EA1312C2F3B2
:104550008503920003F0330302F0CC021A43531098
:10456000520003F0550302F0AA021343226802F836
:104570000B300AF1010AAB79BAEBD30F4FEAD30241
:10458000CCD309F10109C2E713F0020306D06B791D
:10459000019A0AFB032313F80930D1E70B4A0D9265
:1045A00002220C924FF484510CAA0793FFF74EFCA1
:1045B0000448079BC4E76FF0120054E7840A002008
:1045C000D91E010888D10008FB1E0108E91E010858
:1045D00008B5064B186828B15A68002107F09DFEFF
:1045E000002008BD6FF01200FBE700BF840A002026
:1045F000F0B5174A8568146887B034B3117B967D8F
:104600005368178A039381F00401D389ADF8103001
:10461000C1F3800286F001018A42ADF81270ADF854
:10462000143007D100940022AC6803AB1146A047B8
:1046300007B0F0BD7B43224604EBD3039A42F1D08E
:104640001178C94302F8011BF8E76FF01200EFE799
:10465000840A0020044BDA7C8A4286BF0020197548
:104660006FF01500704700BF840A0020F0B585B0D8
:104670008368224DDB69224C00AF39469847214BB5
:10468000214A5B1B9B1053436E4688B0E3746A4615
:104690001E495161DBB2D3611D499161042342F887
:1046A000103F00231B484FF40451FFF7CFFBE37C7E
:1046B000B546EBB138887B88E08108220026A274D9
:1046C00058433A7B2273C010BA68A6822382627371
:1046D0002660A675A560606007F005FE206050B1F9
:1046E0006268314607F019FE30461437BD46F0BD0A
:1046F0006FF01200F9E76FF00B00F6E7F0D1000859
:10470000840A002008D20008ABAAAAAA211F010827
:10471000381F010888D10008014910220A6070473B
:1047200010ED00E072B6404080F31188BFF36F8F48
:10473000BFF34F8F30BF62B6BFF36F8F704700BFBC
:104740002DE9F047814600AF0C4600294CD06E465B
:104750008AB0D1E90012A3686D462748A8464FF0F9
:10476000050AC5E90501C5E9072348F810AF234844
:10477000424600234FF42151FFF768FBB546D4E9C8
:1047800003126369AD461E48C5F810A0C5E90501CE
:10479000C5E907231948002342464FF42151FFF78A
:1047A00055FBB54688B0E3696D46164AA8464FF0FA
:1047B000030AC5E9052348F810AF10480023424614
:1047C0004FF4C251FFF742FBB546A369AD460E4A0E
:1047D000C5F810A0C5E905230848002342464FF458
:1047E000C251FFF733FBB5462146484602F04AFD69
:1047F000BD46BDE8F08700BF511F0108C0D10008C9
:10480000801F0108AF1F0108BE1F010840B2002829
:1048100007DB044A4109012300F01F00834042F8EE
:104820002130704700E100E038B54B1C0F2B0446E7
:104830000D460FD9114A124912485B2306F0E9FDD3
:10484000114829460F23224606F0E3FD0B485B2161
:1048500006F0D8FD40B20028ACBF00F160400B4A22
:104860004FEA0313B8BF00F00F00DBB2AABF00F598
:104870006140135480F8003338BD00BFEC1F0108BD
:1048800022200108C51801083D20010814ED00E0B0
:1048900030BFFFF7FDBF00BF0F4A08B50F4B22F036
:1048A0007F029A60BFF34F8FBFF36F8FD3F88820DA
:1048B00022F47002C3F88820EFF3148323F004037A
:1048C00083F31488BFF36F8F02F08AFD04F0B8FA07
:1048D00000F008FC02F0C8FD0000000800ED00E058
:1048E000094A0A49936809689967094958674B68F2
:1048F00043F080534B60002383F31188BFF36F8F25
:104900009368986F704700BFE00B0020ACD600089A
:1049100000ED00E012498A684FF030001044EFF3D8
:10492000098C80E8F01F102080F31288BFF36F8F8E
:104930000C4F4FF000668A698A603E60506F00231A
:10494000536780F3118804B5104600F00FFCBDE8F2
:10495000044002F1300090E8F01F8CF309887047A2
:10496000E00B002004ED00E01EF0040F0CBFEFF39D
:104970000880EFF30980816911F8021C0229FFD039
:1049800001B506F08CFE01BD42F8203C009B42F8C8
:104990001C3C0A49019B42F8183C029B42F8143C1B
:1049A00021F001014FF0807342F8043C42F8081CEA
:1049B0000023203A02654367704700BFDFB100085B
:1049C000094A0346906870B113F1160F406E05D086
:1049D000A0F140029A4205D8834203D2814228BF07
:1049E0000020704700207047E00B002008B5094BFD
:1049F00098600D46144600F0B9FB204685F30988FF
:104A0000002163B681F31188BFF36F8F002200236A
:104A100006F0E5FBE00B002001B5EFF30580A0F107
:104A200010004FEAC0000449014409C99847BDE895
:104A300001400249084700005CCE0008414A0008D6
:104A4000044B99689869884203D003494FF080521B
:104A50000A607047E00B002004ED00E02DE9F04112
:104A600086B0064600AF0D463E4B7B6102244FF4F4
:104A700082513D483C6107F1100206F01FFE3B4B9E
:104A80009B6AD90409D53A4B3748C7E9044307F173
:104A900010024FF4825106F011FE344B9B6A1A0546
:104AA0000AD5344B7B6102232F483B6107F110028A
:104AB0004FF4825106F002FE2C4CA36A9B0522D5CE
:104AC000E8462D4B7B61022327483B6107F110022A
:104AD0004FF4825106F0F2FDA36BA26A100412D5C6
:104AE00088B06A4625492048C2E90513032342F8E5
:104AF000103F4FF4C25106F0E1FDC5461EB1A36A56
:104B000023F40043A362194B9B6A59050AD51C4B39
:104B10007B61022314483B6107F110024FF482517C
:104B200006F0CCFD114B9A6AD20515D5154B7B6169
:104B300002230D483B6107F110024FF4825106F049
:104B4000BDFD0A4A936A002043F47F4318379362FD
:104B50002870BD46BDE8F0819B6A9B04F1D50A4BE5
:104B6000E5E700BF7D200108C0D1000800ED00E0AE
:104B700093200108A4200108B7200108D0200108D3
:104B8000E5200108002101081821010810B586B0B0
:104B9000334B34480593022404AA4FF48251049401
:104BA00006F08CFD304B9B6A9B0108D52F4B2D489E
:104BB00004AA4FF48251CDE9044306F07FFD2A4B4D
:104BC0009B6ADC0109D52A4B05932648022304AAD7
:104BD0004FF48251049306F071FD234B9B6A180336
:104BE00009D5244B05931F48022304AA4FF4825190
:104BF000049306F063FD1C4B9B6A590309D51E4BB9
:104C000005931848022304AA4FF48251049306F036
:104C100055FD154B9B6A9A0309D5184B059311480E
:104C2000022304AA4FF48251049306F047FD0E4B71
:104C30009B6ADB0309D5124B05930A48022304AA99
:104C40004FF48251049306F039FD074A936A6FEAE4
:104C500003436FEA13430020936206B010BD00BF08
:104C600047210108C0D1000800ED00E05F210108E4
:104C7000722101088C210108AA210108CF21010815
:104C8000E92101082DE9F04786B0064600AF8846C5
:104C900014465B4B5B487B6102253D6107F11002C6
:104CA0004FF4825106F00AFD574B9B6AD80609D58E
:104CB000564B5448C7E9045307F110024FF4825190
:104CC00006F0FCFC504B9B6A19070AD5504B7B61E0
:104CD00002234C483B6107F110024FF4825106F069
:104CE000EDFCDFF824A1DAF828309A0748D46FF0F9
:104CF0001505454B9B6AD8070AD5464B7B610223B5
:104D000040483B6107F110024FF4825106F0D6FC97
:104D10003D4B9B6A99060AD53F4B7B61022339487C
:104D20003B6107F110024FF4825106F0C7FCDFF837
:104D3000D880D8F82830DA0603D4D8F828309B0772
:104D40005BD5D8F80430180557D531462846FFF70B
:104D500037FE00283ED080F3098802202A4B9A6A49
:104D6000920642BF5A6A22F400525A629A6A42F08C
:104D7000FF029A62183700232370BD46BDE8F08712
:104D8000E946264B7B6102233B611E4807F1100276
:104D90004FF4825106F092FCDAF83450DAF82830F9
:104DA0001B06A4D588B06A461D4B1648C2E90535D6
:104DB000032342F8103F4FF4C25106F07FFCCD466A
:104DC000B8F1000F95D0DAF8283023F08003CAF844
:104DD00028308EE7D8F82830D9060ED51149124A66
:104DE000124840F2531306F014FB114806F011FB71
:104DF0000D4840F2531106F005FB0020AEE700BF5E
:104E000014220108C0D1000800ED00E02A220108A8
:104E1000A42001088B220108182101085D22010845
:104E200075220108E4220108AA220108C518010818
:104E30002E2301082DE9F0438D4B8BB004465868B2
:104E400000AFC0F30803002686F31188BFF36F8F0D
:104E500002F07F45B5F17F4F0ED102F00C05082D11
:104E600019D1844BFB6102238348BB6107F118020F
:104E70004FF4825106F022FC8049814A814840F279
:104E80001D4306F0C6FA804806F0C3FA40F21D4101
:104E90007B4806F0B7FA15074CBF0C460126002CDC
:104EA000EAD00022FA71DA1E092A00F2C180DFE896
:104EB00002F005B4B797BFBFBFBFBFBAE946734B97
:104EC000FB614FF0020807F118026B48C7F8188021
:104ED0004FF4825106F0F2FB0023654DFB71EB6A43
:104EE0009A070BD56A4BC7E90683634807F1180296
:104EF0004FF4825106F0E2FB002338E0EB6A002B0E
:104F000001DA644BEFE7EB6A5B0079D5624B5A48F4
:104F1000C7E9068307F118024FF4825106F0CEFB71
:104F20006B69A26943F480736B61BFF34F8FBFF36A
:104F30006F8F6B6932F8022C23F480736B61BFF3BF
:104F40004F8FBFF36F8F4DF602739A4231D188B005
:104F500023686A4651494848C2E90513032342F8C9
:104F6000103F4FF4C25106F0A9FB2368CD46FA79F1
:104F7000DAB907F1080504F1200C206861682A46B7
:104F800003C2083464451546F7D17A6A002E6AD008
:104F9000C2F3080121B96FEA52226FEA42227A6213
:104FA00007F108011846FFF7CBFB2C37BD46BDE8DB
:104FB000F083AB6ADBB233B1FA1D01212046FFF763
:104FC00061FE0346D3E7AB6A13F47F4F04D0F91DAB
:104FD0000120FFF743FDF4E7AB6AB3F5803F02D34E
:104FE000FFF7D4FDEDE72E49254A264840F2EF238E
:104FF00006F00FFA2B4806F00CFA40F2EF2147E7D3
:1050000027491F4A1F4840F2F32306F002FA2648B8
:1050100006F0FFF940F2F3213AE7FA1D0021CDE74F
:10502000F91D0020D5E7214BFB610223BB615CE742
:105030001F4A204910F4F87F6D468AB018BF114608
:105040006A46103BD3611C48022382F820301B4B78
:10505000C2E9050142F8103F07484FF4095106F034
:105060002DFBAD4648E722F4FF7222F0010296E7DD
:1050700000ED00E07F230108C0D10008AA23010849
:10508000AA220108C5180108BD230108FB23010855
:105090001224010833240108412401086024010876
:1050A0002E3501087C240108A0240108D024010821
:1050B0006623010851230108F424010804000001BB
:1050C000024A536943F010035361704700ED00E05A
:1050D000EFF30880EFF3098101B57246FFF7AAFEEE
:1050E00001BD00BF044800231021C2180133552B15
:1050F00082F80013F9D1704700E100E0102080F33E
:10510000118808484FF40461401880F30988EFF3D0
:1051100014800221084380F31488BFF36F8FFFF7D8
:10512000BBFB0000C0180020084B9B6883420BD1DA
:10513000EFF3058343B1064B5A6842F080525A6040
:105140005A6A22F400425A6203F0B2BDE00B00201A
:1051500000ED00E0024B034A0348012100F092B841
:1051600000000120000000202CD40008426E054BF6
:10517000403A1A60044A4021C3E90112184601214D
:1051800000F0A6B89C0A002000000B152DE9F041A4
:10519000DFF8B4E09C4600AF154600238B421ADAD4
:1051A0004468002C4DD0BCF1000F1DD0661E344267
:1051B00015D06C4688B06A462449C2E9051303231A
:1051C00042F8103F224800234FF4C251FEF73EFE42
:1051D0006FF01505A5462846BD46BDE8F0811F2C99
:1051E000E7D902681642E4D1202C026886685FFA8B
:1051F00085F814D9B4F1004F13D8013CB4FA84F403
:10520000C4F11F046400B8F1070F46EA04060AD986
:105210006C4688B06A460F4BC2E90535CFE70824D3
:10522000F1E73E24EFE722F01F022A4342F010028A
:1052300046F00106CEF89850CEF89C200135CEF805
:10524000A06001330C30A9E700ED00E00B25010858
:10525000B8D100082E250108044B0522C3F894207C
:10526000BFF34F8FBFF36F8F704700BF00ED00E0BB
:10527000BFF35F8F024B0022C3F89420704700BF3A
:1052800000ED00E038B50D4D01232A780C46FFF7FC
:105290007DFF287016300FD1094A0A490A484FF499
:1052A0008B7306F0B6F80948214606F0B2F80448B8
:1052B0004FF48B7106F0A6F838BD00BF380C002003
:1052C000542501082E350108C51801088B25010851
:1052D00010B5124A002312780C46FFF757FF10F161
:1052E000160F04D00E4B0022072810DD10BD0D4A0A
:1052F0000D490E4840F2351306F08BF80C48214654
:1053000006F087F8074840F2351106F07BF8C3F83D
:105310009800C3F8A0200130E6E700BF380C002059
:1053200000ED00E0542501082E350108C5180108DC
:10533000B7250108254910B50C68082C10D9244A56
:105340002449254840F24D1306F063F821462348CE
:10535000082206F05EF840F24D111D4806F052F8A2
:10536000FFF786FF48681E490022944200F10C00B6
:1053700016D11C4B1C70FFF76FFFD1F89030C3F3B0
:105380000723082B1FD01849114A134840F2AD13C8
:1053900006F03FF8154806F03CF840F2AD11DCE7A6
:1053A000C1F8982050F80C3C23F01F03134343F03E
:1053B0001003C1F89C3050F8043C43F00103C1F8DD
:1053C000A0300132D1E7002010BD00BF38D4000862
:1053D000542501082E350108C5180108E4250108E7
:1053E00000ED00E0380C00201826010868260108AE
:1053F00008B50B4BC3F1005303F58033B3F5006FD1
:105400000CD20849084A0948812306F002F80848E6
:1054100005F0FFFF0448812105F0F4FF002008BDDE
:10542000C0660020B926010889260108C5180108B0
:10543000FF260108014B1860704700BFAC00002038
:10544000F8B5084F06460D460024AC4208DA3B6822
:1054500098470A28305504F1010401D00D28F4D1F1
:105460002046F8BDA8000020F8B50A4F0D46461E9C
:10547000C0F10104A3199D4201DC2846F8BD7378F0
:105480000A2B02D13B680D2098473B6816F8010FA4
:105490009847EFE7AC00002008B502480521FFF768
:1054A000E3FFFEE78627010810B5074C2368C21802
:1054B0000648C0F1005101F580318A423ABF2260AE
:1054C000C0184FF0FF3010BDA80A0020C0660020B1
:1054D00010B5044658B91149114A124840F27713E1
:1054E00005F097FF40F277110D4805F08BFF14206F
:1054F00004F0BCF9206060B90B49094A094840F240
:105500007F1305F086FF094805F083FF40F27F1105
:10551000EAE7BDE8104006F05BBE00BF8D2701083A
:1055200089260108C51801088C270108C827010829
:1055300010B558B909490A480A4A4FF4D27305F020
:1055400068FF08484FF4D27105F05CFF4FF0FF325E
:10555000BDE810404FF0FF3302F04CB98D27010831
:10556000C51801088926010808B558B9074908482F
:10557000084A4FF4E07305F04CFF06484FF4E07121
:1055800005F040FFBDE8084002F004BA8D2701088D
:10559000C51801088926010808B51D210448FFF730
:1055A00063FF404080F311884FF0030002DF00BF2B
:1055B000EB270108B0B5037B5A0700AF04460D4640
:1055C00014D56C4688B06A46144B5361144B9361F2
:1055D00002231377134B42F8103F134800234FF474
:1055E000D451FEF733FCA546BD46B0BD43F00403DD
:1055F000037303689B6863B9237B6FF38203237390
:105600002368C4E900532B68002BEDD0204698474F
:10561000EAE79847237B9B07EED5E5E709280108D1
:105620002528010803000001C8D100082DE9F8432E
:105630000D4F04460E4615464FF0010802F10409CD
:10564000B44201DBBDE8F8837A6908FA04F333EA6F
:10565000020207D17B6155F834301BB159F8341080
:10566000204698470134EBE700040140044A012337
:10567000116883400B431360024B1856FFF7C6B8FE
:1056800000040140642801081F2806DC03490122A8
:105690000B68824023EA02030B607047000401405C
:1056A00003292AD8DFE801F0020E141F134B012250
:1056B0009968824021EA02019960D96821EA0202D0
:1056C000DA6070470D4B0122996882401143F3E77D
:1056D0000A4B0122D96882401143D960996821EAB6
:1056E00002029A607047012303FA00F0034B9A68A4
:1056F00002439A60DA681043D860704700040140A2
:1057000010B5074B044653F8300028B943F834105D
:1057100003EBC4035A6010BD6FF00F00FBE700BF3E
:10572000AC0A0020034B002243F8302003EBC003F7
:105730005A607047AC0A0020F0B587B00E7906F0C9
:105740001F04132C00AF13D96D4688B06A46404B36
:105750004048C2E90534032342F8103F4FF4C251D8
:1057600006F057F8AD466FF015001C37BD46F0BD8A
:105770004B8843F6FF72934218D0DFF8DCC000225A
:105780003CF8025B45F44045AB4210D00132082A98
:10579000F6D183B1314B7B6102232E483B6107F187
:1057A00010024FF4825106F034F8DCE70722B3060A
:1057B00003D52B4BEFE71A46F9E70B78082B01D0FE
:1057C000284BE8E74B78042B4FF0020302D0264A1F
:1057D0007A61E2E74168092C086803FA04F304EBF4
:1057E000440143EA846386BF1E3943EA015343EA16
:1057F00001531E4988BF43F0007351F8221003F093
:1058000000744FF0007292FAA2F2B2FA82F21430EF
:10581000D44003F0F8734FF0F87292FAA2F2B2FAA1
:1058200082F250F8245023FA02F2072606FA02F216
:1058300025EA02054FF0F87292FAA2F2B2FA82F269
:10584000D34001FA03F32B4340F8243000208CE7C7
:105850007428010880D1000834D700088C2801087A
:10586000AB280108D3280108E8280108ACD40008B7
:105870000368B3F1A04F6FEA01010ED0084A9342CA
:105880000BD002F5C06293680B40916803F0E0739F
:1058900021F0E0710B4393607047024AF3E700BFC9
:1058A00000010050000300500368B3F1A04F0DD079
:1058B000074A93420AD0074B9A6802F0E0721143FC
:1058C0009A6822F0E0720A439A607047024BF3E74D
:1058D0000001005000070050000300502DE9F04F78
:1058E0008BB0036902AF4033064688467B604FF0B9
:1058F000FF3378684FF0FF3202F018F998F8103053
:10590000D6F804903469D9F800B0063B062B26D8A7
:10591000DFE803F03A253D25042522004FF0080A70
:10592000D8F80410002991FAA1F5B5FA85F54FF0E1
:10593000010308BFFF25AB4099422BD9AA4BFB615D
:105940000223AA48BB6107F118024FF4825105F007
:1059500060FF6FF085040FE04FF0000AE0E7A44B12
:10596000FB610223A148BB6107F118024FF4825189
:105970006FF0150405F04DFF786802F099F82046A5
:105980002437BD46BDE8F08F4FF0180AC8E74FF046
:10599000100AC5E799F8143093B1964B93FAA3F324
:1059A00073B1B3FA83F39D420AD1584605F022FF42
:1059B0004FF400017068FFF777FF782006F031FCA4
:1059C00099F8153093B18C4B93FAA3F373B1B3FAF2
:1059D00083F39D420AD1584605F00CFF4FF4800135
:1059E0007068FFF761FF0C2006F01BFC99F8163079
:1059F0007BB1824B93FAA3F35BB1B3FA83F39D427D
:105A000007D1584605F0F6FE4FF080717068FFF739
:105A10004BFFD8F80830C4F89430022305EB450258
:105A2000092D03FA05F343EA856385BF1E3A43EA6D
:105A3000025343EA025343F00073DBF830201B0D9E
:105A400003F4F86322F4F8621343CBF83030DBF848
:105A5000303023F00F03CBF83030012384F89D3031
:105A6000D8F80030CBB19B8901335B00D8F80C101B
:105A7000994214D26C4688B002AA6148D3610423CB
:105A8000C2E9050142F8103F58484FF4015105F0B2
:105A9000C0FEA5466FF00B046EE70223E6E7DBF8D5
:105AA0000C3023F0180343EA0A03CBF80C3098F8C3
:105AB00011300BB1534B42E798F812302BB15846D6
:105AC00005F098FE706805F0A7FE584605F07AFECE
